:100000000C948D000C94BE000C94BE000C94BE00A9
:100010000C94BE000C94BE000C94BE000C94BE0068
:100020000C94BE000C94BE000C94BE000C94BE0058
:100030000C94BE000C9485040C94BE000C94BE007D
:100040000C94BE000C94BE000C94BE000C94BE0038
:100050000C94BE000C945D040C94BE000C94C90872
:100060000C94BE000C9421060C9457060C94BE0010
:100070000C94BE000C94BE000C94BE000C94BE0008
:100080000C94BE000C94BE000C94BE000C94BE00F8
:100090000C94BE000C94BE000C94BE000C94BE00E8
:1000A0000C94BE000C94BE000C94BE000C94BE00D8
:1000B0000C94BE000C94BE000C94BE000C94BE00C8
:1000C0000C94BE000C94BE000C94BE000C94BE00B8
:1000D0000C94BE000C94BE000C94BE000C94BE00A8
:1000E0000C94BE000C945A050C948B060C94E006FC
:1000F0000C94C6040C94AD040C9403030C943805C2
:100100000C9481060C94B8040C941D030C94DA042E
:100110000C948701870103038B0611241FBECFEFC8
:10012000D1E2DEBFCDBF00E00CBF12E0A0E0B2E044
:10013000E2E0FAE100E00BBF02C007900D92A432AA
:10014000B107D9F723E0A4E2B2E001C01D92A630C6
:10015000B207E1F711E0CAE1D1E000E006C0229762
:100160000109FE010BBF0E94D40BC431D10780E00E
:100170000807A9F70E94CF060C94FF0C0C9400000E
:1001800080E090E0A0E8BFE38093420290934302B6
:10019000A0934402B093450210923E0210923F0297
:1001A000109240021092410210923A0210923B02C9
:1001B00010923C0210923D02089510922F0210926C
:1001C0002E0210922B0210922A0210922D021092EF
:1001D0002C0220E030E040E853E46091420270914C
:1001E000430280914402909145020E942D0B0E948F
:1001F000460A709331026093300220E030E040E81C
:1002000053E460913E0270913F02809140029091D0
:1002100041020E942D0B0E94460A709333026093A4
:10022000320220E030E040E853E460913A027091FD
:100230003B0280913C0290913D020E942D0B0E9456
:10024000460A70933502609334020895CF92DF928C
:10025000EF92FF924091380250913902809136021C
:1002600090913702481B590B50932B0240932A025E
:1002700080912E0290912F02840F951F813020E4EF
:10028000920714F080E090E490932F0280932E0266
:1002900080912E0290912F028115904C34F480E0D1
:1002A00090EC90932F0280932E02E0913002F09117
:1002B000310220912E0230912F02DF010E94B60BF5
:1002C0006B017C019A010E94B60B660F771F881F95
:1002D000991F32E0CC0CDD1CEE1CFF1C3A95D1F7C7
:1002E000C60ED71EE81EF91EC0922602D092270223
:1002F000E0922802F092290250932D0240932C02A2
:10030000C701B601FF90EF90DF90CF900895CF9393
:10031000DF9381E090E00E94DE06EC010E94C000C5
:10032000D0932502C0932402DF91CF91089526E057
:1003300040E052EC61E070E08CE592E00E94BF0585
:1003400060E573EC80E090E00E9483030E94360336
:1003500020E533EC40E050E060E074E284EF90E0B0
:100360000E94F00362E080E090E00C94C503CF931C
:10037000DF93CDB7DEB728970FB6F894DEBF0FBE78
:10038000CDBF8DEC9CECACECBDE380933A02909336
:100390003B02A0933C02B0933D0280E090E0A0E8D5
:1003A000BFE380933E0290933F02A0934002B0933C
:1003B000410280E090E0A0E2B1E480934202909399
:1003C0004302A0934402B09345020E94DD0080E006
:1003D0000E945303BC01882777FD8095982F0E94C7
:1003E000790A22E230E048E55EE30E942D0B6B01C2
:1003F0007C0120E030E048ED51E40E94290B181602
:100400008CF020E030E040EA50E4C701B6010E94E1
:10041000DA0987FF0DC0C12CD12C20EAE22E20E49E
:10042000F22E06C0C12CD12C38EDE32E31E4F32E90
:1004300081E00E94530326E3AC01249FC001259F65
:10044000900D1124909337028093360220E030E023
:1004500040E853E4C701B6010E942D0B0E94460AF2
:1004600070933902609338020E9433049B01AC01FF
:1004700069837A838B839C832B013C0116E32D8354
:100480003E834F8358870E9433044B015C012D81CA
:100490003E814F815885621773078407950719F1CC
:1004A00081E00E945303FC011E9FC0011F9F900D1D
:1004B000112490933702809336020E942601813ADC
:1004C00091052CF497FF05C080E090E002C080EA1F
:1004D00090E062E00E94C5030E9433044B015C017E
:1004E000A5019401CCCF0E943304641975098609D3
:1004F00097096A3F71058105910508F444C080E0C1
:100500000E945303BC01882777FD8095982F0E9495
:10051000790A22E230E048E55EE30E942D0B6B0190
:100520007C0120E030E048ED51E40E94290B1816D0
:100530008CF020E030E040EA50E4C701B6010E94B0
:10054000DA0987FF0DC0C12CD12C80EAE82E80E4A7
:10055000F82E06C0C12CD12C98EDE92E91E4F92E8D
:1005600020E030E040E853E4C701B6010E942D0BC3
:100570000E94460A70933902609338020E94330445
:100580002B013C01ADCF0E94330429813A814B817C
:100590005C81621B730B840B950B60317742810584
:1005A000910508F49DCF81E00E9453031C0122E0D5
:1005B00030E0B701A6018CE592E00E94C7088CE507
:1005C00092E00E942507B101882777FD8095982F3A
:1005D0000E94790A22E230E048E55EE30E942D0B9A
:1005E000AB01BC0122E030E08CE592E00E94C7083C
:1005F0008CE592E00E9425070E94330469837A8388
:100600008B839C836DCF20E034E244EF50E060E8C0
:1006100070E089E492E00E94760368E770E088E485
:1006200092E00E94310364E470E087E492E00E946B
:10063000E30386E492E00C94C00080914C02909118
:100640004D02A0914E02B0914F020196A11DB11D25
:1006500080934C0290934D02A0934E02B0934F02B0
:10066000089570935B0260935A020895E0915A02D4
:10067000F0915B02309799F010BA1092070180E672
:100680008483138284E882838FEF86831782858335
:10069000828180648283828186FDFDCF02C080E0FA
:1006A000089581E00895E0915A02F0915B02803153
:1006B000D0F49381883018F4977F938305C09860B5
:1006C000938398E0981B892F9481982B948382813F
:1006D00080648283828186FDFDCF81819481907EBA
:1006E000948390E008958FEF9FEF089570935902DF
:1006F000609358022093540230935502409356025F
:10070000509357020895CF93DF939B01AC01C091A2
:100710005802D09159022097A1F160915402709132
:10072000550280915602909157020E94940B2F5FC0
:100730003F4F4F4F5F4F85B78F7E85BF84B1806F2E
:1007400084B98DB188638DB99D9A809101018867C4
:100750008093010180910A01886380930A0188E1F6
:1007600089838AEA88831A823F832E8319861886B2
:100770001B861A861D861C8689818160898381E09B
:1007800001C080E0DF91CF910895E0915802F0918F
:1007900059023097B1F0268137812817390710F4B4
:1007A00086819781613049F028F0623051F4958755
:1007B000848705C09187808702C09387828781E004
:1007C000089580E0089570934B0260934A0210925E
:1007D0004C0210924D0210924E0210924F02089558
:1007E000CF93DF93C0914A02D0914B022097B9F189
:1007F0000E94940BF894198282E08883C901DA017F
:100800008F3F9105A105B10529F020F08FEF90E011
:10081000A0E0B0E08B838C8380914A0290914B02E0
:100820008434910569F0803B910599F482E08093CE
:1008300070008DE193E0909353028093520209C0BF
:1008400082E080936E008DE193E09093510280935B
:100850005002898182608983789481E001C080E0C0
:10086000DF91CF910895F89460914C0270914D0200
:1008700080914E0290914F0278940895CF9335B3B2
:1008800027B331FB882780F92270822BC82FC095AF
:10089000C0FF07C0E0915002F0915102309709F07B
:1008A0001995C1FF08C0E0915202F09153023097B0
:1008B00011F0CF911994CF9108951F920F920FB616
:1008C0000F9211240BB60F922F933F934F935F9388
:1008D0006F937F938F939F93AF93BF93EF93FF9308
:1008E0000E943E04FF91EF91BF91AF919F918F9134
:1008F0007F916F915F914F913F912F910F900BBE20
:100900000F900FBE0F901F9018951F920F920FB669
:100910000F9211240BB60F922F933F934F935F9337
:100920006F937F938F939F93AF93BF93EF93FF93B7
:100930000E943E04FF91EF91BF91AF919F918F91E3
:100940007F916F915F914F913F912F910F900BBECF
:100950000F900FBE0F901F901895FC01818D228D76
:1009600090E0805C9F4F821B91098F7399270895B7
:10097000FC01918D828D981731F0828DE80FF11D69
:10098000858D90E008958FEF9FEF0895FC01918D84
:10099000828D981761F0828DDF01A80FB11D5D96E1
:1009A0008C91928D9F5F9F73928F90E008958FEF4F
:1009B0009FEF089581E896E0892B41F080E090E078
:1009C000892B21F00E948106811125C080E090E0F2
:1009D000892B41F080E090E0892B21F00E940000FB
:1009E00081111CC080E090E0892B41F080E090E014
:1009F000892B21F00E940000811113C080E090E05B
:100A0000892BA1F080E090E0892B81F00E9400000A
:100A100081110AC008950E940000D8CF0E940000F2
:100A2000E1CF0E940000EACF0C9400000895FC0181
:100A3000848DDF01A80FB11DA35ABF4F2C91848D67
:100A400090E001968F739927848FA689B7892C939C
:100A5000A089B1898C9180648C93938D848D981337
:100A600006C00288F389E02D80818F7D8083089500
:100A7000CF93DF93EC01888D8823C9F0EA89FB8945
:100A8000808185FD05C0A889B9898C9186FD0FC03C
:100A90000FB607FCF5CF808185FFF2CFA889B98911
:100AA0008C9185FFEDCFCE010E941705E7CFDF9136
:100AB000CF910895CF92DF92FF920F931F93CF9320
:100AC000DF931F92CDB7DEB76C01DC015B969C9182
:100AD0005B975C968C915C97981307C05096ED914C
:100AE000FC915197808185FD32C0F601038D10E0A5
:100AF0000F5F1F4F0F731127F02EF601848DF81230
:100B000011C00FB607FCF9CFD6015096ED91FC91BC
:100B10005197808185FFF1CFC60169830E94170537
:100B20006981EBCF838DE80FF11DE35AFF4F60839E
:100B3000D6015B960C935B975296ED91FC9153977F
:100B400080818062808381E058968C930DC0D601AD
:100B50005696ED91FC91579760835096ED91FC91DC
:100B6000519780818064808381E090E00F90DF91D5
:100B7000CF911F910F91FF90DF90CF900895BF927A
:100B8000CF92DF92EF92FF92CF93DF93EC016A0155
:100B90007B01B22EE889F98982E08083411581EEDC
:100BA000580761057105A1F060E079E08DE390E000
:100BB000A70196010E94940B215031094109510966
:100BC0005695479537952795211580E1380798F078
:100BD000E889F989108260E874E88EE190E0A70165
:100BE00096010E94940B21503109410951095695F3
:100BF000479537952795EC85FD853083EE85FF85F4
:100C00002083188EEC89FD89B082EA89FB89808176
:100C100080618083EA89FB89808188608083EA899A
:100C2000FB89808180688083EA89FB8980818F7D50
:100C30008083DF91CF91FF90EF90DF90CF90BF90B6
:100C400008951F920F920FB60F9211240BB60F92B8
:100C50002F938F939F93EF93FF93E0916C02F0910A
:100C60006D028081E0917202F091730282FD12C0E8
:100C70009081809175028F5F8F7320917602821729
:100C800051F0E0917502F0E0E45AFD4F958F8093AA
:100C9000750201C08081FF91EF919F918F912F91FB
:100CA0000F900BBE0F900FBE0F901F9018951F92C4
:100CB0000F920FB60F9211240BB60F922F933F9302
:100CC0004F935F936F937F938F939F93AF93BF9354
:100CD000EF93FF938CE592E00E941705FF91EF914F
:100CE000BF91AF919F918F917F916F915F914F9144
:100CF0003F912F910F900BBE0F900FBE0F901F9042
:100D000018958CE592E00E94AD0421E0892B09F44E
:100D100020E0822F089510925F0210925E0288EE0A
:100D200093E0A0E0B0E08093600290936102A09312
:100D30006202B09363028AE092E090935D02809336
:100D40005C0285EC90E0909369028093680284ECE9
:100D500090E090936B0280936A0280EC90E0909315
:100D60006D0280936C0281EC90E090936F0280930F
:100D70006E0282EC90E0909371028093700286EC98
:100D800090E0909373028093720210927502109219
:100D900076021092770210927802089508950E94C8
:100DA00013090E94CE060E949701CAEDD4E00E946A
:100DB000B7012097E1F30E94DA04F9CF0C94D80B25
:100DC000CF92DF92EF92FF920F931F93CF93DF9317
:100DD0006C017A01EB01E60EF71E00E010E0CE1583
:100DE000DF0561F06991D601ED91FC910190F081F0
:100DF000E02DC6011995080F191FF1CFC801DF9129
:100E0000CF911F910F91FF90EF90DF90CF900895B9
:100E10006115710581F0DB010D900020E9F7AD014E
:100E200041505109461B570BDC01ED91FC910280AA
:100E3000F381E02D199480E090E00895DC01ED91BC
:100E4000FC910190F081E02D19940F931F93CF93A3
:100E5000DF93EC016DE00E941E078C016AE0CE0179
:100E60000E941E07800F911FDF91CF911F910F915C
:100E700008958F929F92AF92BF92CF92DF92EF929E
:100E8000FF920F931F93CF93DF93CDB7DEB7A19758
:100E90000FB6F894DEBF0FBECDBF7C01C42EE52F88
:100EA000CB01D22E19A221E02D1510F02AE0D22E6E
:100EB0008E010F5D1F4F8D2C912CA12CB12C6C2D10
:100EC0007E2FA50194010E94940B8C2DD29E801937
:100ED0001124015011098A3014F4805D01C0895C2D
:100EE000F8018083211531054105510521F0C22EFD
:100EF000E32FCA01E4CFB801C7010E940807A196F9
:100F00000FB6F894DEBF0FBECDBFDF91CF911F911A
:100F10000F91FF90EF90DF90CF90BF90AF909F9098
:100F20008F900895CF92DF92EF92FF920F931F93CD
:100F3000CF93DF93EC016A017B012115310579F430
:100F4000E881F9810190F081E02D642FDF91CF914C
:100F50001F910F91FF90EF90DF90CF9019942A305E
:100F60003105E9F477FF1AC06DE20E941E078C017B
:100F700044275527BA014C195D096E097F092AE0FB
:100F8000CE010E943907800F911FDF91CF911F91F1
:100F90000F91FF90EF90DF90CF9008952AE0B70176
:100FA000A601CE01DF91CF911F910F91FF90EF909D
:100FB000DF90CF900C9439074F925F926F927F929F
:100FC0008F929F92AF92BF92CF92DF92EF92FF9259
:100FD0000F931F93CF93DF93EC016A017B01B22E35
:100FE0009A01AB01C701B6010E94900B882319F04A
:100FF00066E172E027C026013701E89477F82FEF09
:101000003FEF4FE75FE7C301B2010E94900B8111F0
:101010000DC02FEF3FEF4FE75FE7C301B2010E9422
:10102000DA0918161CF46AE172E00CC02FEF3FEFEA
:101030004FE75FE4C701B6010E94290B1816ACF414
:101040006EE172E0CE01DF91CF911F910F91FF9081
:10105000EF90DF90CF90BF90AF909F908F907F9058
:101060006F905F904F900C9408072FEF3FEF4FE782
:101070005FECC701B6010E94DA0987FDE1CF20E0ED
:1010800030E0A901C701B6010E94DA0987FF0AC052
:101090006DE2CE010E941E078C01F7FAF094F7F87A
:1010A000F09402C000E010E0A12C60E070E080E06D
:1010B0009FE3AB1441F020E030E040E251E40E94B5
:1010C000DE09A394F6CF9B01AC01C701B6010E94D3
:1010D00076096B017C010E944B0A2B013C010E94A6
:1010E000770A9B01AC01C701B6010E9475096B012B
:1010F0007C012AE0B301A201CE010E943907080F4A
:10110000191FBB2039F062E272E0CE010E9408078D
:10111000080F191F7B2C772041F120E030E040E2DE
:1011200051E4C701B6010E942D0B6B017C010E94A6
:10113000460A4B01AA2497FCA094BA2C2AE030E07E
:10114000B501A401CE010E949207080F191FC50125
:10115000B4010E94790A9B01AC01C701B6010E944B
:1011600075096B017C017A94D6CFC801DF91CF91CC
:101170001F910F91FF90EF90DF90CF90BF90AF90B5
:101180009F908F907F906F905F904F9008950C94F8
:10119000DC071F920F920FB60F9211242F933F93EB
:1011A0008F939F93AF93BF938091FA029091FB022C
:1011B000A091FC02B091FD023091F90223E0230FCF
:1011C0002D3720F40196A11DB11D05C026E8230F7F
:1011D0000296A11DB11D2093F9028093FA0290930B
:1011E000FB02A093FC02B093FD028091FE0290915D
:1011F000FF02A0910003B09101030196A11DB11D52
:101200008093FE029093FF02A0930003B09301032A
:10121000BF91AF919F918F913F912F910F900FBEF2
:101220000F901F901895789484B5826084BD84B522
:10123000816084BD85B5826085BD85B5816085BDD1
:10124000EEE6F0E0808181608083E1E8F0E01082EA
:10125000808182608083808181608083E0E8F0E02B
:10126000808181608083E1EBF0E080818460808315
:10127000E0EBF0E0808181608083E1E9F0E0808153
:1012800082608083808181608083E0E9F0E08081FA
:1012900081608083E1EAF0E08081826080838081E8
:1012A00081608083E0EAF0E0808181608083E1E218
:1012B000F1E0808182608083808181608083E0E2D0
:1012C000F1E0808181608083EAE7F0E080818460E2
:1012D000808380818260808380818160808380813F
:1012E000806880831092C10008955058BB27AA27B8
:1012F0000ED075C166D130F06BD120F031F49F3F34
:1013000011F41EF45BC10EF4E095E7FB51C1E92F27
:1013100077D180F3BA17620773078407950718F02F
:1013200071F49EF58FC10EF4E0950B2EBA2FA02D0F
:101330000B01B90190010C01CA01A0011124FF2782
:10134000591B99F0593F50F4503E68F11A16F0407D
:10135000A22F232F342F4427585FF3CF469537957C
:101360002795A795F0405395C9F77EF41F16BA0B41
:10137000620B730B840BBAF09150A1F0FF0FBB1FEF
:10138000661F771F881FC2F70EC0BA0F621F731F38
:10139000841F48F4879577956795B795F7959E3F95
:1013A00008F0B3CF9395880F08F09927EE0F979523
:1013B00087950895D9D008F481E008950CD00FC125
:1013C00007D140F0FED030F021F45F3F19F0F0C0BB
:1013D000511139C1F3C014D198F39923C9F355239E
:1013E000B1F3951B550BBB27AA2762177307840718
:1013F00038F09F5F5F4F220F331F441FAA1FA9F3CE
:1014000033D00E2E3AF0E0E830D091505040E695BF
:10141000001CCAF729D0FE2F27D0660F771F881F20
:10142000BB1F261737074807AB07B0E809F0BB0B0F
:10143000802DBF01FF2793585F4F2AF09E3F510533
:1014400068F0B6C000C15F3FECF3983EDCF38695D0
:1014500077956795B795F7959F5FC9F7880F911DA9
:101460009695879597F90895E1E0660F771F881F95
:10147000BB1F621773078407BA0720F0621B730B48
:10148000840BBA0BEE1F88F7E095089504D068949A
:10149000B111D9C00895BCD088F09F5790F0B92FF2
:1014A0009927B751A0F0D1F0660F771F881F991FB9
:1014B0001AF0BA95C9F712C0B13081F0C3D0B1E0CB
:1014C0000895C0C0672F782F8827B85F39F0B93FDB
:1014D000CCF3869577956795B395D9F73EF49095BB
:1014E0008095709561957F4F8F4F9F4F0895E89439
:1014F00009C097FB3EF490958095709561957F4F5C
:101500008F4F9F4F9923A9F0F92F96E9BB27939509
:10151000F695879577956795B795F111F8CFFAF419
:10152000BB0F11F460FF1BC06F5F7F4F8F4F9F4F4A
:1015300016C0882311F096E911C0772321F09EE8A8
:10154000872F762F05C0662371F096E8862F70E00E
:1015500060E02AF09A95660F771F881FDAF7880FE8
:101560009695879597F90895990F0008550FAA0B3E
:10157000E0E8FEEF16161706E807F907C0F01216A6
:101580001306E407F50798F0621B730B840B950BA9
:1015900039F40A2661F0232B242B252B21F40895FE
:1015A0000A2609F4A140A6958FEF811D811D08959B
:1015B00097F99F6780E870E060E008959FEF80EC06
:1015C000089500240A9416161706180609060895A9
:1015D00000240A9412161306140605060895092E0F
:1015E0000394000C11F4882352F0BB0F40F4BF2B7E
:1015F00011F460FF04C06F5F7F4F8F4F9F4F0895BE
:1016000057FD9058440F551F59F05F3F71F04795B3
:10161000880F97FB991F61F09F3F79F08795089598
:10162000121613061406551FF2CF4695F1DF08C0B7
:10163000161617061806991FF1CF869571056105D4
:1016400008940895E894BB2766277727CB0197F97C
:1016500008958ADF08F48FEF08950BD0C0CFB1DF73
:1016600028F0B6DF18F0952309F0A2CFA7CF1124F8
:10167000EACFC6DFA0F3959FD1F3950F50E0551F39
:10168000629FF001729FBB27F00DB11D639FAA27D7
:10169000F00DB11DAA1F649F6627B00DA11D661F26
:1016A000829F2227B00DA11D621F739FB00DA11D47
:1016B000621F839FA00D611D221F749F3327A00D01
:1016C000611D231F849F600D211D822F762F6A2F9D
:1016D00011249F5750408AF0E1F088234AF0EE0F22
:1016E000FF1FBB1F661F771F881F91505040A9F72F
:1016F0009E3F510570F05CCFA6CF5F3FECF3983E64
:10170000DCF3869577956795B795F795E7959F5F95
:10171000C1F7FE2B880F911D9695879597F908952F
:1017200023DF880B990B0895A1E21A2EAA1BBB1B7D
:10173000FD010DC0AA1FBB1FEE1FFF1FA217B3079D
:10174000E407F50720F0A21BB30BE40BF50B661FB3
:10175000771F881F991F1A9469F760957095809577
:1017600090959B01AC01BD01CF0108950E94BE0B75
:10177000332312F48A1B9B0B0C94CF0BA29FB00156
:10178000B39FC001A39F700D811D1124911DB29FB5
:10179000700D811D1124911D08950E94BE0BB7FF8D
:1017A0000895821B930B08950790F691E02D1994EC
:1017B000CF93DF938230910510F482E090E0E091C6
:1017C0000403F091050320E030E0A0E0B0E03097A2
:1017D00039F14081518148175907B8F04817590726
:1017E00071F482819381109729F013969C938E93C4
:1017F00012972CC0909305038093040327C02115F2
:10180000310531F04217530718F0A901DB0101C07F
:10181000EF019A01BD01DF010280F381E02DD7CFF6
:1018200021153105F9F0281B390B2430310580F4DE
:101830008A819B816115710521F0FB01938382836D
:1018400004C09093050380930403FE01329644C0C4
:10185000FE01E20FF31F81939193225031093983E6
:1018600028833AC02091020330910303232B41F4D3
:10187000209102023091030230930303209302036C
:1018800020910002309101022115310541F42DB75C
:101890003EB74091040250910502241B350BE091A4
:1018A0000203F0910303E217F307A0F42E1B3F0B92
:1018B0002817390778F0AC014E5F5F4F24173507C2
:1018C00048F04E0F5F1F5093030340930203819330
:1018D000919302C0E0E0F0E0CF01DF91CF91089555
:1018E000CF93DF93009709F487C0FC0132971382EE
:1018F0001282C0910403D0910503209781F42081C6
:101900003181280F391F80910203909103038217C0
:10191000930779F5F0930303E09302036DC0DE01B2
:1019200020E030E0AE17BF0750F412964D915C9165
:1019300013979D014115510509F1DA01F3CFB383E6
:10194000A28340815181840F951F8A179B0771F4F0
:101950008D919C911197840F951F0296918380839E
:1019600012968D919C911397938382832115310553
:1019700029F4F0930503E09304033EC0D9011396C4
:10198000FC93EE9312974D915D91A40FB51FEA174A
:10199000FB0779F480819181840F951F0296D9010C
:1019A00011969C938E938281938113969C938E9330
:1019B0001297E0E0F0E08A819B81009719F0FE0128
:1019C000EC01F9CFCE01029628813981820F931F55
:1019D00020910203309103032817390769F43097E7
:1019E00029F4109205031092040302C0138212829C
:1019F000D0930303C0930203DF91CF910895F8942D
:021A0000FFCF16
:101A0200000006038000000000005A05E006AD0455
:101A1200C604B80438056E616E00696E66006F76A2
:041A220066002E002C
:00000001FF
